{
  "_format": "hh-sol-artifact-1",
  "contractName": "SongPortal",
  "sourceName": "contracts/SongPortal.sol",
  "abi": [
    {
      "inputs": [],
      "stateMutability": "nonpayable",
      "type": "constructor"
    },
    {
      "anonymous": false,
      "inputs": [
        {
          "indexed": true,
          "internalType": "address",
          "name": "from",
          "type": "address"
        },
        {
          "indexed": false,
          "internalType": "uint256",
          "name": "timestamp",
          "type": "uint256"
        },
        {
          "indexed": false,
          "internalType": "string",
          "name": "message",
          "type": "string"
        }
      ],
      "name": "NewSong",
      "type": "event"
    },
    {
      "inputs": [],
      "name": "getAllSongs",
      "outputs": [
        {
          "components": [
            {
              "internalType": "address",
              "name": "waver",
              "type": "address"
            },
            {
              "internalType": "string",
              "name": "message",
              "type": "string"
            },
            {
              "internalType": "uint256",
              "name": "timestamp",
              "type": "uint256"
            }
          ],
          "internalType": "struct SongPortal.SongData[]",
          "name": "",
          "type": "tuple[]"
        }
      ],
      "stateMutability": "view",
      "type": "function"
    },
    {
      "inputs": [],
      "name": "getTotalSongs",
      "outputs": [
        {
          "internalType": "uint256",
          "name": "",
          "type": "uint256"
        }
      ],
      "stateMutability": "view",
      "type": "function"
    },
    {
      "inputs": [
        {
          "internalType": "address",
          "name": "",
          "type": "address"
        }
      ],
      "name": "lastWavedAt",
      "outputs": [
        {
          "internalType": "uint256",
          "name": "",
          "type": "uint256"
        }
      ],
      "stateMutability": "view",
      "type": "function"
    },
    {
      "inputs": [
        {
          "internalType": "string",
          "name": "_message",
          "type": "string"
        }
      ],
      "name": "wave",
      "outputs": [],
      "stateMutability": "nonpayable",
      "type": "function"
    }
  ],
  "bytecode": "0x60806040523480156200001157600080fd5b5062000041604051806060016040528060288152602001620010e2602891396200004760201b6200048c1760201c565b620001d1565b620000e7816040516024016200005e9190620001ad565b6040516020818303038152906040527f41304fac000000000000000000000000000000000000000000000000000000007bffffffffffffffffffffffffffffffffffffffffffffffffffffffff19166020820180517bffffffffffffffffffffffffffffffffffffffffffffffffffffffff8381831617835250505050620000ea60201b60201c565b50565b60008151905060006a636f6e736f6c652e6c6f679050602083016000808483855afa5050505050565b600081519050919050565b600082825260208201905092915050565b60005b838110156200014f57808201518184015260208101905062000132565b60008484015250505050565b6000601f19601f8301169050919050565b6000620001798262000113565b6200018581856200011e565b9350620001978185602086016200012f565b620001a2816200015b565b840191505092915050565b60006020820190508181036000830152620001c981846200016c565b905092915050565b610f0180620001e16000396000f3fe608060405234801561001057600080fd5b506004361061004c5760003560e01c806329ef686214610051578063449d46c01461006f5780638c9db2b41461008b578063a42a4663146100a9575b600080fd5b6100596100d9565b60405161006691906107e6565b60405180910390f35b61008960048036038101906100849190610951565b61022a565b005b61009361046b565b6040516100a091906109a9565b60405180910390f35b6100c360048036038101906100be91906109f0565b610474565b6040516100d091906109a9565b60405180910390f35b60606001805480602002602001604051908101604052809291908181526020016000905b8282101561022157838290600052602060002090600302016040518060600160405290816000820160009054906101000a900473ffffffffffffffffffffffffffffffffffffffff1673ffffffffffffffffffffffffffffffffffffffff1673ffffffffffffffffffffffffffffffffffffffff16815260200160018201805461018690610a4c565b80601f01602080910402602001604051908101604052809291908181526020018280546101b290610a4c565b80156101ff5780601f106101d4576101008083540402835291602001916101ff565b820191906000526020600020905b8154815290600101906020018083116101e257829003601f168201915b50505050508152602001600282015481525050815260200190600101906100fd565b50505050905090565b426032600260003373ffffffffffffffffffffffffffffffffffffffff1673ffffffffffffffffffffffffffffffffffffffff168152602001908152602001600020546102779190610aac565b106102b7576040517f08c379a00000000000000000000000000000000000000000000000000000000081526004016102ae90610b63565b60405180910390fd5b42600260003373ffffffffffffffffffffffffffffffffffffffff1673ffffffffffffffffffffffffffffffffffffffff16815260200190815260200160002081905550600160008082825461030d9190610aac565b925050819055506103536040518060400160405280601381526020017f2573206861732073656e74206120736f6e67210000000000000000000000000081525033610525565b600160405180606001604052803373ffffffffffffffffffffffffffffffffffffffff16815260200183815260200142815250908060018154018082558091505060019003906000526020600020906003020160009091909190915060008201518160000160006101000a81548173ffffffffffffffffffffffffffffffffffffffff021916908373ffffffffffffffffffffffffffffffffffffffff160217905550602082015181600101908161040b9190610d2f565b506040820151816002015550503373ffffffffffffffffffffffffffffffffffffffff167f2e96c1f7928a9072fdae4127a395c0b9269f4a7dce78ac1d1ee0c22036af97d94283604051610460929190610e3a565b60405180910390a250565b60008054905090565b60026020528060005260406000206000915090505481565b610522816040516024016104a09190610e6a565b6040516020818303038152906040527f41304fac000000000000000000000000000000000000000000000000000000007bffffffffffffffffffffffffffffffffffffffffffffffffffffffff19166020820180517bffffffffffffffffffffffffffffffffffffffffffffffffffffffff83818316178352505050506105c1565b50565b6105bd828260405160240161053b929190610e9b565b6040516020818303038152906040527f319af333000000000000000000000000000000000000000000000000000000007bffffffffffffffffffffffffffffffffffffffffffffffffffffffff19166020820180517bffffffffffffffffffffffffffffffffffffffffffffffffffffffff83818316178352505050506105c1565b5050565b60008151905060006a636f6e736f6c652e6c6f679050602083016000808483855afa5050505050565b600081519050919050565b600082825260208201905092915050565b6000819050602082019050919050565b600073ffffffffffffffffffffffffffffffffffffffff82169050919050565b600061064182610616565b9050919050565b61065181610636565b82525050565b600081519050919050565b600082825260208201905092915050565b60005b83811015610691578082015181840152602081019050610676565b60008484015250505050565b6000601f19601f8301169050919050565b60006106b982610657565b6106c38185610662565b93506106d3818560208601610673565b6106dc8161069d565b840191505092915050565b6000819050919050565b6106fa816106e7565b82525050565b60006060830160008301516107186000860182610648565b506020830151848203602086015261073082826106ae565b915050604083015161074560408601826106f1565b508091505092915050565b600061075c8383610700565b905092915050565b6000602082019050919050565b600061077c826105ea565b61078681856105f5565b93508360208202850161079885610606565b8060005b858110156107d457848403895281516107b58582610750565b94506107c083610764565b925060208a0199505060018101905061079c565b50829750879550505050505092915050565b600060208201905081810360008301526108008184610771565b905092915050565b6000604051905090565b600080fd5b600080fd5b600080fd5b600080fd5b7f4e487b7100000000000000000000000000000000000000000000000000000000600052604160045260246000fd5b61085e8261069d565b810181811067ffffffffffffffff8211171561087d5761087c610826565b5b80604052505050565b6000610890610808565b905061089c8282610855565b919050565b600067ffffffffffffffff8211156108bc576108bb610826565b5b6108c58261069d565b9050602081019050919050565b82818337600083830152505050565b60006108f46108ef846108a1565b610886565b9050828152602081018484840111156109105761090f610821565b5b61091b8482856108d2565b509392505050565b600082601f8301126109385761093761081c565b5b81356109488482602086016108e1565b91505092915050565b60006020828403121561096757610966610812565b5b600082013567ffffffffffffffff81111561098557610984610817565b5b61099184828501610923565b91505092915050565b6109a3816106e7565b82525050565b60006020820190506109be600083018461099a565b92915050565b6109cd81610636565b81146109d857600080fd5b50565b6000813590506109ea816109c4565b92915050565b600060208284031215610a0657610a05610812565b5b6000610a14848285016109db565b91505092915050565b7f4e487b7100000000000000000000000000000000000000000000000000000000600052602260045260246000fd5b60006002820490506001821680610a6457607f821691505b602082108103610a7757610a76610a1d565b5b50919050565b7f4e487b7100000000000000000000000000000000000000000000000000000000600052601160045260246000fd5b6000610ab7826106e7565b9150610ac2836106e7565b9250828201905080821115610ada57610ad9610a7d565b5b92915050565b600082825260208201905092915050565b7f506c65617365207761697420666f72206174206c656173742031206d696e757460008201527f65206265666f72652073656e64696e67206120736f6e67000000000000000000602082015250565b6000610b4d603783610ae0565b9150610b5882610af1565b604082019050919050565b60006020820190508181036000830152610b7c81610b40565b9050919050565b60008190508160005260206000209050919050565b60006020601f8301049050919050565b600082821b905092915050565b600060088302610be57fffffffffffffffffffffffffffffffffffffffffffffffffffffffffffffffff82610ba8565b610bef8683610ba8565b95508019841693508086168417925050509392505050565b6000819050919050565b6000610c2c610c27610c22846106e7565b610c07565b6106e7565b9050919050565b6000819050919050565b610c4683610c11565b610c5a610c5282610c33565b848454610bb5565b825550505050565b600090565b610c6f610c62565b610c7a818484610c3d565b505050565b5b81811015610c9e57610c93600082610c67565b600181019050610c80565b5050565b601f821115610ce357610cb481610b83565b610cbd84610b98565b81016020851015610ccc578190505b610ce0610cd885610b98565b830182610c7f565b50505b505050565b600082821c905092915050565b6000610d0660001984600802610ce8565b1980831691505092915050565b6000610d1f8383610cf5565b9150826002028217905092915050565b610d3882610657565b67ffffffffffffffff811115610d5157610d50610826565b5b610d5b8254610a4c565b610d66828285610ca2565b600060209050601f831160018114610d995760008415610d87578287015190505b610d918582610d13565b865550610df9565b601f198416610da786610b83565b60005b82811015610dcf57848901518255600182019150602085019450602081019050610daa565b86831015610dec5784890151610de8601f891682610cf5565b8355505b6001600288020188555050505b505050505050565b6000610e0c82610657565b610e168185610ae0565b9350610e26818560208601610673565b610e2f8161069d565b840191505092915050565b6000604082019050610e4f600083018561099a565b8181036020830152610e618184610e01565b90509392505050565b60006020820190508181036000830152610e848184610e01565b905092915050565b610e9581610636565b82525050565b60006040820190508181036000830152610eb58185610e01565b9050610ec46020830184610e8c565b939250505056fea26469706673582212206eddd9da4b5335505ecbf726bbe2d1927d4d5d7d9427032aff719e93a25a9a9a64736f6c6343000811003354686973206973205265696e65277320636f6e747261637420616e64204920616d20736d61727421",
  "linkReferences": {},
  "deployedLinkReferences": {}
}